:1000000040288A01820701344C3455344C344C3436
:100010004C344C34723472347234723472347234FC
:100020007234723448344C34483448344C344C3490
:100030005534553455345534553455345534553478
:100040000134013448344C3448344834483448345A
:100050007234723472347234723472347234723470
:100060005534603455345534603460346534653407
:1000700055345534603460346034603401340034B5
:1000800083120313A114831685156430882007306A
:1000900083160313810083120313A2018312031337
:1000A00022080120A000A00803198328831203134B
:1000B000200B5D288316051660288316031305128E
:1000C000831203138101FA30831203130102031810
:1000D0007F282008A30083120313A308031976289E
:1000E0000000000000000000A3036B280130831211
:1000F0000313A106211C051221180516632883127B
:100100000313A20A4E2883120313851D4B2883284C
:1001100083120313A200023083168100831203139B
:1001200081017D30831203130102031C9128831285
:080130000313A20B8E28080046
:02400E00D400DC
:00000001FF
