:1000000067288A01820701344C3455344C344C340F
:100010004C344C34723472347234723472347234FC
:100020007234723448344C34483448344C344C3490
:100030005534553455345534553455345534553478
:100040000134013448344C3448344834483448345A
:100050007234723472347234723472347234723470
:100060005534603455345534603460346534653407
:1000700055345534603460346034603401340034B5
:1000800083120313A200023083168100831203132C
:1000900081017D30831203130102031C492883125E
:1000A0000313A20B46280800FF0007308316031332
:1000B00081002730831203130107FF007F0883129A
:1000C00003130106031D5E28FF0B59280800831245
:1000D0000313A11485018316851285156430402011
:1000E000073083160313810083120313A2018312C6
:1000F000031322080120A000A0080319AC288312D2
:100100000313200B862883160516892883160313EC
:100110000512831203138101FA30831203130102C3
:100120000318A8282008A30083120313A3080319A7
:100130009F280000000000000000A3039428013065
:1001400083120313A106211C0512211805168C2801
:1001500083120313A20A772883120313851D7428C0
:02016000AC28C9
:02400E00D400DC
:00000001FF
