:10000000012B831203132808B8002B06B900290816
:10001000031D2C080319542883120313A9077E30EB
:10002000031C1628A902031C1B285828831203133B
:10003000A902031C5128831203132708B700B8171D
:10004000AB17A701A8011030BA0083120313B80C34
:10005000B70C031C31282A08A7072B0803182B0FFD
:10006000A80783120313A80CA70CBA0B2528A81BFA
:100070004228A70DA80DA9080319512883120313BC
:10008000A903380D831203133B1F6228031C622847
:10009000A70F6228A80F6228A80CA70CA90F622836
:1000A0005828831203133B1583120313A9015D28FB
:1000B00083120313BB14FF30A90083120313A7019B
:1000C0008030A80083120313B91FA81383120313EF
:1000D00027080800831203132C082902B90003180B
:1000E0008528B909B90A2908B8002C08A9003808D8
:1000F000AC002808B8002B08A8003808AB00270877
:10010000B8002A08A7003808AA0012308312031387
:10011000390203182F2983120313AC0803192F295E
:1001200083120313B7012808B80028082B06BA0069
:10013000A817AB17083083120313B902031CA828B1
:10014000831203132A08B7002B08AA00AB019A28D0
:1001500083120313B9070319B5280310831203137D
:10016000AB0CAA0CB70CB90BAD2883120313BA1F42
:10017000FC282A08A7022B08031C2B0FA80203182F
:10018000C828A809A709A70A0319A80A8030B80631
:1001900083120313B709B70A0319D228A703270A42
:1001A0000319A803033083120313B9008312031346
:1001B000A808031DE9282708A8003708A700B701E9
:1001C0000830A902031C1D2983120313B90BD6287A
:1001D0001D2983120313A81BF4280310B70DA70DC4
:1001E000A80DA90BE9281D29831203133B1F2B29F6
:1001F000B71F2B29B7011429831203132A08A70755
:100200002B0803182B0FA807031C0E2983120313B6
:10021000A80CA70CB70CA90A0319212983120313F0
:100220003B1F2B29B71F2B2983120313A70F2B2941
:10023000A80F2B2903142710062983120313A901E1
:10024000262983120313BB14FF30A9008312031362
:10025000A7018030A80083120313B81FA8138312CC
:100260000313270808008E3083120313B700B80168
:10027000B901A91F4629A909A809A709A70F432958
:10028000A80A0319A90A83120313B91783120313C7
:10029000A908031954290830B7072708B800280807
:1002A000A7002908A800692983120313A808031DC1
:1002B00069290830B702270803197F29831203131D
:1002C000A800A701692983120313B80DA70DA80D73
:1002D000B70383120313A81F63293B1F7929B81F93
:1002E0007929A70F7929A80F79290314A80CA70C3D
:1002F000B70A831203133708A900B91FA813831282
:10030000031327080800831203132808B7007E3060
:100310002902B800031CC52983120313A817A901D9
:10032000B9013808103CB8000318A2290830B807F2
:10033000031CC029831203132808A9002708A8005A
:10034000A701AE290830831203133802031CAE291B
:10035000B8002708B9002808A700A80183120313D2
:10036000B8080319BC29031083120313A90CA80CA5
:10037000A70CB90CB80BB32983120313A91FCD29FD
:1003800083120313BB14FF30C62900018312031329
:10039000A700A800A900A913E229831203133B1F99
:1003A000D629B91FD629A70A0319A80A831203134D
:1003B000B71FE229A909A809A709A70FE229A80AD6
:1003C0000319A90A831203132708080083120313D1
:1003D000AD003B08B5003B17B601AD08031DF2297F
:1003E000A81BB61783120313A81388302902031819
:1003F000BB16831203132708AE002808AF00290894
:10040000B000FA30AA002230AB007F30AC000120EF
:10041000831203133B138321831203133B17271CFF
:10042000142AA70A0319A80A073083120313270501
:10043000B40004303402031C212A8030B606043094
:10044000B40283120313A901332183120313290871
:10045000B30003196D2A831203132708B10028087B
:10046000B200AA01C930AB007E30AC00012083127B
:1004700003132E08AA002F08AB003008AC006A2036
:10048000831203132708AE002808AF002908B00024
:100490003108A7003208A8003308A900AA30AA0032
:1004A000FD30AB007230AC000120831203132E0824
:1004B000AA002F08AB003008AC006A208312031397
:1004C0002908B0002908AC002808AF002808AB00B4
:1004D0002708AE002708AA007B2A831203133008DE
:1004E000A9003008AC002F08A8002F08AB002E0888
:1004F000A7002E08AA000120831203132708B100C9
:100500002808B2002908B300340C340601392D063E
:100510000319BC2A1330AA00B230AB007530AC000E
:1005200001209E3083120313AA002A30AB007A30D8
:10053000AC006A20831203133108AA003208AB0012
:100540003308AC00012083120313AA018030AB00F2
:100550007E30AC006A20831203133108AA003208EF
:10056000AB003308AC00012083120313AA01AB01D6
:100570007F30AC006A20E72A103083120313AA00F0
:100580000530AB007830AC0001209A3083120313A1
:10059000AA00AA30AB007C30AC006A20831203139F
:1005A0003108AA003208AB003308AC0001208312E6
:1005B0000313AA01AB017F30AC006A20831203133E
:1005C0002E08AA002F08AB003008AC0001208030B4
:1005D00083120313AD080319EF2AB418B606831269
:1005E0000313B61BA80683120313351B3B17831294
:1005F0000313270808000030E6218312031327089D
:10060000080083120313A601A60183120313200816
:10061000A7002108A8002208A900FB2283120313C7
:100620002708A3002808A4002908A500A60A052B6E
:02400E00D400DC
:00000001FF
